{
  "_format": "hh-sol-artifact-1",
  "contractName": "Domains",
  "sourceName": "contracts/Domains.sol",
  "abi": [
    {
      "inputs": [
        {
          "internalType": "string",
          "name": "_tld",
          "type": "string"
        }
      ],
      "stateMutability": "payable",
      "type": "constructor"
    },
    {
      "anonymous": false,
      "inputs": [
        {
          "indexed": true,
          "internalType": "address",
          "name": "owner",
          "type": "address"
        },
        {
          "indexed": true,
          "internalType": "address",
          "name": "approved",
          "type": "address"
        },
        {
          "indexed": true,
          "internalType": "uint256",
          "name": "tokenId",
          "type": "uint256"
        }
      ],
      "name": "Approval",
      "type": "event"
    },
    {
      "anonymous": false,
      "inputs": [
        {
          "indexed": true,
          "internalType": "address",
          "name": "owner",
          "type": "address"
        },
        {
          "indexed": true,
          "internalType": "address",
          "name": "operator",
          "type": "address"
        },
        {
          "indexed": false,
          "internalType": "bool",
          "name": "approved",
          "type": "bool"
        }
      ],
      "name": "ApprovalForAll",
      "type": "event"
    },
    {
      "anonymous": false,
      "inputs": [
        {
          "indexed": true,
          "internalType": "address",
          "name": "from",
          "type": "address"
        },
        {
          "indexed": true,
          "internalType": "address",
          "name": "to",
          "type": "address"
        },
        {
          "indexed": true,
          "internalType": "uint256",
          "name": "tokenId",
          "type": "uint256"
        }
      ],
      "name": "Transfer",
      "type": "event"
    },
    {
      "inputs": [
        {
          "internalType": "address",
          "name": "to",
          "type": "address"
        },
        {
          "internalType": "uint256",
          "name": "tokenId",
          "type": "uint256"
        }
      ],
      "name": "approve",
      "outputs": [],
      "stateMutability": "nonpayable",
      "type": "function"
    },
    {
      "inputs": [
        {
          "internalType": "address",
          "name": "owner",
          "type": "address"
        }
      ],
      "name": "balanceOf",
      "outputs": [
        {
          "internalType": "uint256",
          "name": "",
          "type": "uint256"
        }
      ],
      "stateMutability": "view",
      "type": "function"
    },
    {
      "inputs": [
        {
          "internalType": "string",
          "name": "",
          "type": "string"
        }
      ],
      "name": "domains",
      "outputs": [
        {
          "internalType": "address",
          "name": "",
          "type": "address"
        }
      ],
      "stateMutability": "view",
      "type": "function"
    },
    {
      "inputs": [
        {
          "internalType": "string",
          "name": "name",
          "type": "string"
        }
      ],
      "name": "getAddress",
      "outputs": [
        {
          "internalType": "address",
          "name": "",
          "type": "address"
        }
      ],
      "stateMutability": "view",
      "type": "function"
    },
    {
      "inputs": [
        {
          "internalType": "uint256",
          "name": "tokenId",
          "type": "uint256"
        }
      ],
      "name": "getApproved",
      "outputs": [
        {
          "internalType": "address",
          "name": "",
          "type": "address"
        }
      ],
      "stateMutability": "view",
      "type": "function"
    },
    {
      "inputs": [
        {
          "internalType": "string",
          "name": "name",
          "type": "string"
        }
      ],
      "name": "getRecord",
      "outputs": [
        {
          "internalType": "string",
          "name": "",
          "type": "string"
        }
      ],
      "stateMutability": "view",
      "type": "function"
    },
    {
      "inputs": [
        {
          "internalType": "address",
          "name": "owner",
          "type": "address"
        },
        {
          "internalType": "address",
          "name": "operator",
          "type": "address"
        }
      ],
      "name": "isApprovedForAll",
      "outputs": [
        {
          "internalType": "bool",
          "name": "",
          "type": "bool"
        }
      ],
      "stateMutability": "view",
      "type": "function"
    },
    {
      "inputs": [],
      "name": "name",
      "outputs": [
        {
          "internalType": "string",
          "name": "",
          "type": "string"
        }
      ],
      "stateMutability": "view",
      "type": "function"
    },
    {
      "inputs": [
        {
          "internalType": "uint256",
          "name": "tokenId",
          "type": "uint256"
        }
      ],
      "name": "ownerOf",
      "outputs": [
        {
          "internalType": "address",
          "name": "",
          "type": "address"
        }
      ],
      "stateMutability": "view",
      "type": "function"
    },
    {
      "inputs": [
        {
          "internalType": "string",
          "name": "name",
          "type": "string"
        }
      ],
      "name": "price",
      "outputs": [
        {
          "internalType": "uint256",
          "name": "",
          "type": "uint256"
        }
      ],
      "stateMutability": "pure",
      "type": "function"
    },
    {
      "inputs": [
        {
          "internalType": "string",
          "name": "",
          "type": "string"
        }
      ],
      "name": "records",
      "outputs": [
        {
          "internalType": "string",
          "name": "",
          "type": "string"
        }
      ],
      "stateMutability": "view",
      "type": "function"
    },
    {
      "inputs": [
        {
          "internalType": "string",
          "name": "name",
          "type": "string"
        }
      ],
      "name": "register",
      "outputs": [],
      "stateMutability": "payable",
      "type": "function"
    },
    {
      "inputs": [
        {
          "internalType": "address",
          "name": "from",
          "type": "address"
        },
        {
          "internalType": "address",
          "name": "to",
          "type": "address"
        },
        {
          "internalType": "uint256",
          "name": "tokenId",
          "type": "uint256"
        }
      ],
      "name": "safeTransferFrom",
      "outputs": [],
      "stateMutability": "nonpayable",
      "type": "function"
    },
    {
      "inputs": [
        {
          "internalType": "address",
          "name": "from",
          "type": "address"
        },
        {
          "internalType": "address",
          "name": "to",
          "type": "address"
        },
        {
          "internalType": "uint256",
          "name": "tokenId",
          "type": "uint256"
        },
        {
          "internalType": "bytes",
          "name": "_data",
          "type": "bytes"
        }
      ],
      "name": "safeTransferFrom",
      "outputs": [],
      "stateMutability": "nonpayable",
      "type": "function"
    },
    {
      "inputs": [
        {
          "internalType": "address",
          "name": "operator",
          "type": "address"
        },
        {
          "internalType": "bool",
          "name": "approved",
          "type": "bool"
        }
      ],
      "name": "setApprovalForAll",
      "outputs": [],
      "stateMutability": "nonpayable",
      "type": "function"
    },
    {
      "inputs": [
        {
          "internalType": "string",
          "name": "name",
          "type": "string"
        },
        {
          "internalType": "string",
          "name": "record",
          "type": "string"
        }
      ],
      "name": "setRecord",
      "outputs": [],
      "stateMutability": "nonpayable",
      "type": "function"
    },
    {
      "inputs": [
        {
          "internalType": "bytes4",
          "name": "interfaceId",
          "type": "bytes4"
        }
      ],
      "name": "supportsInterface",
      "outputs": [
        {
          "internalType": "bool",
          "name": "",
          "type": "bool"
        }
      ],
      "stateMutability": "view",
      "type": "function"
    },
    {
      "inputs": [],
      "name": "symbol",
      "outputs": [
        {
          "internalType": "string",
          "name": "",
          "type": "string"
        }
      ],
      "stateMutability": "view",
      "type": "function"
    },
    {
      "inputs": [],
      "name": "tld",
      "outputs": [
        {
          "internalType": "string",
          "name": "",
          "type": "string"
        }
      ],
      "stateMutability": "view",
      "type": "function"
    },
    {
      "inputs": [
        {
          "internalType": "uint256",
          "name": "tokenId",
          "type": "uint256"
        }
      ],
      "name": "tokenURI",
      "outputs": [
        {
          "internalType": "string",
          "name": "",
          "type": "string"
        }
      ],
      "stateMutability": "view",
      "type": "function"
    },
    {
      "inputs": [
        {
          "internalType": "address",
          "name": "from",
          "type": "address"
        },
        {
          "internalType": "address",
          "name": "to",
          "type": "address"
        },
        {
          "internalType": "uint256",
          "name": "tokenId",
          "type": "uint256"
        }
      ],
      "name": "transferFrom",
      "outputs": [],
      "stateMutability": "nonpayable",
      "type": "function"
    }
  ],
  "bytecode": "0x6080604052604051806108a0016040528061086b81526020016200489561086b9139600990805190602001906200003892919062000287565b506040518060400160405280600d81526020017f3c2f746578743e3c2f7376673e00000000000000000000000000000000000000815250600a90805190602001906200008692919062000287565b5060405162005100380380620051008339818101604052810190620000ac9190620004d4565b6040518060400160405280601181526020017f32387468204e616d6520536572766963650000000000000000000000000000008152506040518060400160405280600481526020017f323874680000000000000000000000000000000000000000000000000000000081525081600090805190602001906200013092919062000287565b5080600190805190602001906200014992919062000287565b50505080600890805190602001906200016492919062000287565b50620001b16040518060400160405280601881526020017f2573206e616d652073657276696365206465706c6f796564000000000000000081525082620001b860201b6200147e1760201c565b5062000622565b6200025a8282604051602401620001d192919062000582565b6040516020818303038152906040527f4b5c4277000000000000000000000000000000000000000000000000000000007bffffffffffffffffffffffffffffffffffffffffffffffffffffffff19166020820180517bffffffffffffffffffffffffffffffffffffffffffffffffffffffff83818316178352505050506200025e60201b60201c565b5050565b60008151905060006a636f6e736f6c652e6c6f679050602083016000808483855afa5050505050565b8280546200029590620005ec565b90600052602060002090601f016020900481019282620002b9576000855562000305565b82601f10620002d457805160ff191683800117855562000305565b8280016001018555821562000305579182015b8281111562000304578251825591602001919060010190620002e7565b5b50905062000314919062000318565b5090565b5b808211156200033357600081600090555060010162000319565b5090565b6000604051905090565b600080fd5b600080fd5b600080fd5b600080fd5b6000601f19601f8301169050919050565b7f4e487b7100000000000000000000000000000000000000000000000000000000600052604160045260246000fd5b620003a08262000355565b810181811067ffffffffffffffff82111715620003c257620003c162000366565b5b80604052505050565b6000620003d762000337565b9050620003e5828262000395565b919050565b600067ffffffffffffffff82111562000408576200040762000366565b5b620004138262000355565b9050602081019050919050565b60005b838110156200044057808201518184015260208101905062000423565b8381111562000450576000848401525b50505050565b60006200046d6200046784620003ea565b620003cb565b9050828152602081018484840111156200048c576200048b62000350565b5b6200049984828562000420565b509392505050565b600082601f830112620004b957620004b86200034b565b5b8151620004cb84826020860162000456565b91505092915050565b600060208284031215620004ed57620004ec62000341565b5b600082015167ffffffffffffffff8111156200050e576200050d62000346565b5b6200051c84828501620004a1565b91505092915050565b600081519050919050565b600082825260208201905092915050565b60006200054e8262000525565b6200055a818562000530565b93506200056c81856020860162000420565b620005778162000355565b840191505092915050565b600060408201905081810360008301526200059e818562000541565b90508181036020830152620005b4818462000541565b90509392505050565b7f4e487b7100000000000000000000000000000000000000000000000000000000600052602260045260246000fd5b600060028204905060018216806200060557607f821691505b602082108114156200061c576200061b620005bd565b5b50919050565b61426380620006326000396000f3fe60806040526004361061012a5760003560e01c80636352211e116100ab578063bf40fac11161006f578063bf40fac114610428578063c1880a9814610465578063c87b56dd1461048e578063e985e9c5146104cb578063f2c298be14610508578063fe2c6198146105245761012a565b80636352211e1461033157806370a082311461036e57806395d89b41146103ab578063a22cb465146103d6578063b88d4fde146103ff5761012a565b806323b872dd116100f257806323b872dd1461023a57806326449235146102635780632d551432146102a057806342842e0e146102cb578063541e771d146102f45761012a565b806301ffc9a71461012f57806306fdde031461016c578063081812fc14610197578063095ea7b3146101d457806311dd8845146101fd575b600080fd5b34801561013b57600080fd5b50610156600480360381019061015191906128c1565b610561565b6040516101639190612909565b60405180910390f35b34801561017857600080fd5b50610181610643565b60405161018e91906129bd565b60405180910390f35b3480156101a357600080fd5b506101be60048036038101906101b99190612a15565b6106d5565b6040516101cb9190612a83565b60405180910390f35b3480156101e057600080fd5b506101fb60048036038101906101f69190612aca565b61075a565b005b34801561020957600080fd5b50610224600480360381019061021f9190612b6f565b610872565b60405161023191906129bd565b60405180910390f35b34801561024657600080fd5b50610261600480360381019061025c9190612bbc565b610925565b005b34801561026f57600080fd5b5061028a60048036038101906102859190612d3f565b610985565b6040516102979190612a83565b60405180910390f35b3480156102ac57600080fd5b506102b56109ce565b6040516102c291906129bd565b60405180910390f35b3480156102d757600080fd5b506102f260048036038101906102ed9190612bbc565b610a5c565b005b34801561030057600080fd5b5061031b60048036038101906103169190612d3f565b610a7c565b60405161032891906129bd565b60405180910390f35b34801561033d57600080fd5b5061035860048036038101906103539190612a15565b610b32565b6040516103659190612a83565b60405180910390f35b34801561037a57600080fd5b5061039560048036038101906103909190612d88565b610be4565b6040516103a29190612dc4565b60405180910390f35b3480156103b757600080fd5b506103c0610c9c565b6040516103cd91906129bd565b60405180910390f35b3480156103e257600080fd5b506103fd60048036038101906103f89190612e0b565b610d2e565b005b34801561040b57600080fd5b5061042660048036038101906104219190612eec565b610d44565b005b34801561043457600080fd5b5061044f600480360381019061044a9190612b6f565b610da6565b60405161045c9190612a83565b60405180910390f35b34801561047157600080fd5b5061048c60048036038101906104879190612f6f565b610df1565b005b34801561049a57600080fd5b506104b560048036038101906104b09190612a15565b610e9f565b6040516104c291906129bd565b60405180910390f35b3480156104d757600080fd5b506104f260048036038101906104ed9190612ff0565b610ff1565b6040516104ff9190612909565b60405180910390f35b610522600480360381019061051d9190612b6f565b611085565b005b34801561053057600080fd5b5061054b60048036038101906105469190612b6f565b6113db565b6040516105589190612dc4565b60405180910390f35b60007f80ac58cd000000000000000000000000000000000000000000000000000000007bffffffffffffffffffffffffffffffffffffffffffffffffffffffff1916827bffffffffffffffffffffffffffffffffffffffffffffffffffffffff1916148061062c57507f5b5e139f000000000000000000000000000000000000000000000000000000007bffffffffffffffffffffffffffffffffffffffffffffffffffffffff1916827bffffffffffffffffffffffffffffffffffffffffffffffffffffffff1916145b8061063c575061063b8261151a565b5b9050919050565b6060600080546106529061305f565b80601f016020809104026020016040519081016040528092919081815260200182805461067e9061305f565b80156106cb5780601f106106a0576101008083540402835291602001916106cb565b820191906000526020600020905b8154815290600101906020018083116106ae57829003601f168201915b5050505050905090565b60006106e082611584565b61071f576040517f08c379a000000000000000000000000000000000000000000000000000000000815260040161071690613103565b60405180910390fd5b6004600083815260200190815260200160002060009054906101000a900473ffffffffffffffffffffffffffffffffffffffff169050919050565b600061076582610b32565b90508073ffffffffffffffffffffffffffffffffffffffff168373ffffffffffffffffffffffffffffffffffffffff1614156107d6576040517f08c379a00000000000000000000000000000000000000000000000000000000081526004016107cd90613195565b60405180910390fd5b8073ffffffffffffffffffffffffffffffffffffffff166107f56115f0565b73ffffffffffffffffffffffffffffffffffffffff16148061082457506108238161081e6115f0565b610ff1565b5b610863576040517f08c379a000000000000000000000000000000000000000000000000000000000815260040161085a90613227565b60405180910390fd5b61086d83836115f8565b505050565b6060600c8383604051610886929190613277565b9081526020016040518091039020805461089f9061305f565b80601f01602080910402602001604051908101604052809291908181526020018280546108cb9061305f565b80156109185780601f106108ed57610100808354040283529160200191610918565b820191906000526020600020905b8154815290600101906020018083116108fb57829003601f168201915b5050505050905092915050565b6109366109306115f0565b826116b1565b610975576040517f08c379a000000000000000000000000000000000000000000000000000000000815260040161096c90613302565b60405180910390fd5b61098083838361178f565b505050565b600b818051602081018201805184825260208301602085012081835280955050505050506000915054906101000a900473ffffffffffffffffffffffffffffffffffffffff1681565b600880546109db9061305f565b80601f0160208091040260200160405190810160405280929190818152602001828054610a079061305f565b8015610a545780601f10610a2957610100808354040283529160200191610a54565b820191906000526020600020905b815481529060010190602001808311610a3757829003601f168201915b505050505081565b610a7783838360405180602001604052806000815250610d44565b505050565b600c818051602081018201805184825260208301602085012081835280955050505050506000915090508054610ab19061305f565b80601f0160208091040260200160405190810160405280929190818152602001828054610add9061305f565b8015610b2a5780601f10610aff57610100808354040283529160200191610b2a565b820191906000526020600020905b815481529060010190602001808311610b0d57829003601f168201915b505050505081565b6000806002600084815260200190815260200160002060009054906101000a900473ffffffffffffffffffffffffffffffffffffffff169050600073ffffffffffffffffffffffffffffffffffffffff168173ffffffffffffffffffffffffffffffffffffffff161415610bdb576040517f08c379a0000000000000000000000000000000000000000000000000000000008152600401610bd290613394565b60405180910390fd5b80915050919050565b60008073ffffffffffffffffffffffffffffffffffffffff168273ffffffffffffffffffffffffffffffffffffffff161415610c55576040517f08c379a0000000000000000000000000000000000000000000000000000000008152600401610c4c90613426565b60405180910390fd5b600360008373ffffffffffffffffffffffffffffffffffffffff1673ffffffffffffffffffffffffffffffffffffffff168152602001908152602001600020549050919050565b606060018054610cab9061305f565b80601f0160208091040260200160405190810160405280929190818152602001828054610cd79061305f565b8015610d245780601f10610cf957610100808354040283529160200191610d24565b820191906000526020600020905b815481529060010190602001808311610d0757829003601f168201915b5050505050905090565b610d40610d396115f0565b83836119f6565b5050565b610d55610d4f6115f0565b836116b1565b610d94576040517f08c379a0000000000000000000000000000000000000000000000000000000008152600401610d8b90613302565b60405180910390fd5b610da084848484611b63565b50505050565b6000600b8383604051610dba929190613277565b908152602001604051809103902060009054906101000a900473ffffffffffffffffffffffffffffffffffffffff16905092915050565b3373ffffffffffffffffffffffffffffffffffffffff16600b8585604051610e1a929190613277565b908152602001604051809103902060009054906101000a900473ffffffffffffffffffffffffffffffffffffffff1673ffffffffffffffffffffffffffffffffffffffff1614610e6957600080fd5b8181600c8686604051610e7d929190613277565b90815260200160405180910390209190610e9892919061272c565b5050505050565b6060610eaa82611584565b610ee9576040517f08c379a0000000000000000000000000000000000000000000000000000000008152600401610ee0906134b8565b60405180910390fd5b6000600660008481526020019081526020016000208054610f099061305f565b80601f0160208091040260200160405190810160405280929190818152602001828054610f359061305f565b8015610f825780601f10610f5757610100808354040283529160200191610f82565b820191906000526020600020905b815481529060010190602001808311610f6557829003601f168201915b505050505090506000610f93611bbf565b9050600081511415610fa9578192505050610fec565b600082511115610fde578082604051602001610fc6929190613509565b60405160208183030381529060405292505050610fec565b610fe784611bd6565b925050505b919050565b6000600560008473ffffffffffffffffffffffffffffffffffffffff1673ffffffffffffffffffffffffffffffffffffffff16815260200190815260200160002060008373ffffffffffffffffffffffffffffffffffffffff1673ffffffffffffffffffffffffffffffffffffffff16815260200190815260200160002060009054906101000a900460ff16905092915050565b600073ffffffffffffffffffffffffffffffffffffffff16600b83836040516110af929190613277565b908152602001604051809103902060009054906101000a900473ffffffffffffffffffffffffffffffffffffffff1673ffffffffffffffffffffffffffffffffffffffff16146110fe57600080fd5b600061110a83836113db565b90508034101561114f576040517f08c379a000000000000000000000000000000000000000000000000000000000815260040161114690613579565b60405180910390fd5b60008383600860405160200161116793929190613679565b60405160208183030381529060405290506000600982600a604051602001611191939291906136aa565b604051602081830303815290604052905060006111ae6007611c7d565b905060006111ff87878080601f016020809104026020016040519081016040528093929190818152602001838380828437600081840152601f19601f82011690508083019250505050505050611c8b565b9050600061120c82611e40565b90506112756040518060600160405280602e8152602001614200602e913989898080601f016020809104026020016040519081016040528093929190818152602001838380828437600081840152601f19601f8201169050808301925050505050505085611fa1565b60006112ab8661128487612040565b8460405160200161129793929190613857565b604051602081830303815290604052612040565b90506000816040516020016112c09190613900565b60405160208183030381529060405290506112f260405180606001604052806039815260200161414e603991396121d8565b6113316040518060400160405280600e81526020017f46696e616c20746f6b656e5552490000000000000000000000000000000000008152508261147e565b611352604051806060016040528060398152602001614187603991396121d8565b61135c3386612271565b611366858261228f565b33600b8b8b604051611379929190613277565b908152602001604051809103902060006101000a81548173ffffffffffffffffffffffffffffffffffffffff021916908373ffffffffffffffffffffffffffffffffffffffff1602179055506113cf6007612303565b50505050505050505050565b60008061142b84848080601f016020809104026020016040519081016040528093929190818152602001838380828437600081840152601f19601f82011690508083019250505050505050611c8b565b90506000811161143a57600080fd5b6003811415611453576611c37937e08000915050611478565b600481141561146c57660aa87bee538000915050611478565b66038d7ea4c680009150505b92915050565b6115168282604051602401611494929190613922565b6040516020818303038152906040527f4b5c4277000000000000000000000000000000000000000000000000000000007bffffffffffffffffffffffffffffffffffffffffffffffffffffffff19166020820180517bffffffffffffffffffffffffffffffffffffffffffffffffffffffff8381831617835250505050612319565b5050565b60007f01ffc9a7000000000000000000000000000000000000000000000000000000007bffffffffffffffffffffffffffffffffffffffffffffffffffffffff1916827bffffffffffffffffffffffffffffffffffffffffffffffffffffffff1916149050919050565b60008073ffffffffffffffffffffffffffffffffffffffff166002600084815260200190815260200160002060009054906101000a900473ffffffffffffffffffffffffffffffffffffffff1673ffffffffffffffffffffffffffffffffffffffff1614159050919050565b600033905090565b816004600083815260200190815260200160002060006101000a81548173ffffffffffffffffffffffffffffffffffffffff021916908373ffffffffffffffffffffffffffffffffffffffff160217905550808273ffffffffffffffffffffffffffffffffffffffff1661166b83610b32565b73ffffffffffffffffffffffffffffffffffffffff167f8c5be1e5ebec7d5bd14f71427d1e84f3dd0314c0f7b2291e5b200ac8c7c3b92560405160405180910390a45050565b60006116bc82611584565b6116fb576040517f08c379a00000000000000000000000000000000000000000000000000000000081526004016116f2906139cb565b60405180910390fd5b600061170683610b32565b90508073ffffffffffffffffffffffffffffffffffffffff168473ffffffffffffffffffffffffffffffffffffffff16148061177557508373ffffffffffffffffffffffffffffffffffffffff1661175d846106d5565b73ffffffffffffffffffffffffffffffffffffffff16145b8061178657506117858185610ff1565b5b91505092915050565b8273ffffffffffffffffffffffffffffffffffffffff166117af82610b32565b73ffffffffffffffffffffffffffffffffffffffff1614611805576040517f08c379a00000000000000000000000000000000000000000000000000000000081526004016117fc90613a5d565b60405180910390fd5b600073ffffffffffffffffffffffffffffffffffffffff168273ffffffffffffffffffffffffffffffffffffffff161415611875576040517f08c379a000000000000000000000000000000000000000000000000000000000815260040161186c90613aef565b60405180910390fd5b611880838383612342565b61188b6000826115f8565b6001600360008573ffffffffffffffffffffffffffffffffffffffff1673ffffffffffffffffffffffffffffffffffffffff16815260200190815260200160002060008282546118db9190613b3e565b925050819055506001600360008473ffffffffffffffffffffffffffffffffffffffff1673ffffffffffffffffffffffffffffffffffffffff16815260200190815260200160002060008282546119329190613b72565b92505081905550816002600083815260200190815260200160002060006101000a81548173ffffffffffffffffffffffffffffffffffffffff021916908373ffffffffffffffffffffffffffffffffffffffff160217905550808273ffffffffffffffffffffffffffffffffffffffff168473ffffffffffffffffffffffffffffffffffffffff167fddf252ad1be2c89b69c2b068fc378daa952ba7f163c4a11628f55a4df523b3ef60405160405180910390a46119f1838383612347565b505050565b8173ffffffffffffffffffffffffffffffffffffffff168373ffffffffffffffffffffffffffffffffffffffff161415611a65576040517f08c379a0000000000000000000000000000000000000000000000000000000008152600401611a5c90613c14565b60405180910390fd5b80600560008573ffffffffffffffffffffffffffffffffffffffff1673ffffffffffffffffffffffffffffffffffffffff16815260200190815260200160002060008473ffffffffffffffffffffffffffffffffffffffff1673ffffffffffffffffffffffffffffffffffffffff16815260200190815260200160002060006101000a81548160ff0219169083151502179055508173ffffffffffffffffffffffffffffffffffffffff168373ffffffffffffffffffffffffffffffffffffffff167f17307eab39ab6107e8899845ad3d59bd9653f200f220920489ca2b5937696c3183604051611b569190612909565b60405180910390a3505050565b611b6e84848461178f565b611b7a8484848461234c565b611bb9576040517f08c379a0000000000000000000000000000000000000000000000000000000008152600401611bb090613ca6565b60405180910390fd5b50505050565b606060405180602001604052806000815250905090565b6060611be182611584565b611c20576040517f08c379a0000000000000000000000000000000000000000000000000000000008152600401611c1790613d38565b60405180910390fd5b6000611c2a611bbf565b90506000815111611c4a5760405180602001604052806000815250611c75565b80611c5484611e40565b604051602001611c65929190613509565b6040516020818303038152906040525b915050919050565b600081600001549050919050565b60008060008084519050600092505b80821015611e35576000858381518110611cb757611cb6613d58565b5b602001015160f81c60f81b9050608060f81b817effffffffffffffffffffffffffffffffffffffffffffffffffffffffffffff19161015611d0657600183611cff9190613b72565b9250611e21565b60e060f81b817effffffffffffffffffffffffffffffffffffffffffffffffffffffffffffff19161015611d4857600283611d419190613b72565b9250611e20565b60f060f81b817effffffffffffffffffffffffffffffffffffffffffffffffffffffffffffff19161015611d8a57600383611d839190613b72565b9250611e1f565b60f8801b817effffffffffffffffffffffffffffffffffffffffffffffffffffffffffffff19161015611dcb57600483611dc49190613b72565b9250611e1e565b60fc60f81b817effffffffffffffffffffffffffffffffffffffffffffffffffffffffffffff19161015611e0d57600583611e069190613b72565b9250611e1d565b600683611e1a9190613b72565b92505b5b5b5b5b508280611e2d90613d87565b935050611c9a565b829350505050919050565b60606000821415611e88576040518060400160405280600181526020017f30000000000000000000000000000000000000000000000000000000000000008152509050611f9c565b600082905060005b60008214611eba578080611ea390613d87565b915050600a82611eb39190613dff565b9150611e90565b60008167ffffffffffffffff811115611ed657611ed5612c14565b5b6040519080825280601f01601f191660200182016040528015611f085781602001600182028036833780820191505090505b5090505b60008514611f9557600182611f219190613b3e565b9150600a85611f309190613e30565b6030611f3c9190613b72565b60f81b818381518110611f5257611f51613d58565b5b60200101907effffffffffffffffffffffffffffffffffffffffffffffffffffffffffffff1916908160001a905350600a85611f8e9190613dff565b9450611f0c565b8093505050505b919050565b61203b838383604051602401611fb993929190613e61565b6040516020818303038152906040527ff362ca59000000000000000000000000000000000000000000000000000000007bffffffffffffffffffffffffffffffffffffffffffffffffffffffff19166020820180517bffffffffffffffffffffffffffffffffffffffffffffffffffffffff8381831617835250505050612319565b505050565b6060600082519050600081141561206957604051806020016040528060008152509150506121d3565b6000600360028361207a9190613b72565b6120849190613dff565b60046120909190613ea6565b905060006020826120a19190613b72565b67ffffffffffffffff8111156120ba576120b9612c14565b5b6040519080825280601f01601f1916602001820160405280156120ec5781602001600182028036833780820191505090505b50905060006040518060600160405280604081526020016141c0604091399050600181016020830160005b868110156121905760038101905062ffffff818a015116603f8160121c168401518060081b905060ff603f83600c1c1686015116810190508060081b905060ff603f8360061c1686015116810190508060081b905060ff603f831686015116810190508060e01b90508084526004840193505050612117565b5060038606600181146121aa57600281146121ba576121c5565b613d3d60f01b60028303526121c5565b603d60f81b60018303525b508484525050819450505050505b919050565b61226e816040516024016121ec91906129bd565b6040516020818303038152906040527f41304fac000000000000000000000000000000000000000000000000000000007bffffffffffffffffffffffffffffffffffffffffffffffffffffffff19166020820180517bffffffffffffffffffffffffffffffffffffffffffffffffffffffff8381831617835250505050612319565b50565b61228b8282604051806020016040528060008152506124d4565b5050565b61229882611584565b6122d7576040517f08c379a00000000000000000000000000000000000000000000000000000000081526004016122ce90613f72565b60405180910390fd5b806006600084815260200190815260200160002090805190602001906122fe9291906127b2565b505050565b6001816000016000828254019250508190555050565b60008151905060006a636f6e736f6c652e6c6f679050602083016000808483855afa5050505050565b505050565b505050565b600061236d8473ffffffffffffffffffffffffffffffffffffffff1661252f565b156124c7578373ffffffffffffffffffffffffffffffffffffffff1663150b7a026123966115f0565b8786866040518563ffffffff1660e01b81526004016123b89493929190613fe7565b6020604051808303816000875af19250505080156123f457506040513d601f19601f820116820180604052508101906123f19190614048565b60015b612477573d8060008114612424576040519150601f19603f3d011682016040523d82523d6000602084013e612429565b606091505b5060008151141561246f576040517f08c379a000000000000000000000000000000000000000000000000000000000815260040161246690613ca6565b60405180910390fd5b805181602001fd5b63150b7a0260e01b7bffffffffffffffffffffffffffffffffffffffffffffffffffffffff1916817bffffffffffffffffffffffffffffffffffffffffffffffffffffffff1916149150506124cc565b600190505b949350505050565b6124de8383612552565b6124eb600084848461234c565b61252a576040517f08c379a000000000000000000000000000000000000000000000000000000000815260040161252190613ca6565b60405180910390fd5b505050565b6000808273ffffffffffffffffffffffffffffffffffffffff163b119050919050565b600073ffffffffffffffffffffffffffffffffffffffff168273ffffffffffffffffffffffffffffffffffffffff1614156125c2576040517f08c379a00000000000000000000000000000000000000000000000000000000081526004016125b9906140c1565b60405180910390fd5b6125cb81611584565b1561260b576040517f08c379a00000000000000000000000000000000000000000000000000000000081526004016126029061412d565b60405180910390fd5b61261760008383612342565b6001600360008473ffffffffffffffffffffffffffffffffffffffff1673ffffffffffffffffffffffffffffffffffffffff16815260200190815260200160002060008282546126679190613b72565b92505081905550816002600083815260200190815260200160002060006101000a81548173ffffffffffffffffffffffffffffffffffffffff021916908373ffffffffffffffffffffffffffffffffffffffff160217905550808273ffffffffffffffffffffffffffffffffffffffff16600073ffffffffffffffffffffffffffffffffffffffff167fddf252ad1be2c89b69c2b068fc378daa952ba7f163c4a11628f55a4df523b3ef60405160405180910390a461272860008383612347565b5050565b8280546127389061305f565b90600052602060002090601f01602090048101928261275a57600085556127a1565b82601f1061277357803560ff19168380011785556127a1565b828001600101855582156127a1579182015b828111156127a0578235825591602001919060010190612785565b5b5090506127ae9190612838565b5090565b8280546127be9061305f565b90600052602060002090601f0160209004810192826127e05760008555612827565b82601f106127f957805160ff1916838001178555612827565b82800160010185558215612827579182015b8281111561282657825182559160200191906001019061280b565b5b5090506128349190612838565b5090565b5b80821115612851576000816000905550600101612839565b5090565b6000604051905090565b600080fd5b600080fd5b60007fffffffff0000000000000000000000000000000000000000000000000000000082169050919050565b61289e81612869565b81146128a957600080fd5b50565b6000813590506128bb81612895565b92915050565b6000602082840312156128d7576128d661285f565b5b60006128e5848285016128ac565b91505092915050565b60008115159050919050565b612903816128ee565b82525050565b600060208201905061291e60008301846128fa565b92915050565b600081519050919050565b600082825260208201905092915050565b60005b8381101561295e578082015181840152602081019050612943565b8381111561296d576000848401525b50505050565b6000601f19601f8301169050919050565b600061298f82612924565b612999818561292f565b93506129a9818560208601612940565b6129b281612973565b840191505092915050565b600060208201905081810360008301526129d78184612984565b905092915050565b6000819050919050565b6129f2816129df565b81146129fd57600080fd5b50565b600081359050612a0f816129e9565b92915050565b600060208284031215612a2b57612a2a61285f565b5b6000612a3984828501612a00565b91505092915050565b600073ffffffffffffffffffffffffffffffffffffffff82169050919050565b6000612a6d82612a42565b9050919050565b612a7d81612a62565b82525050565b6000602082019050612a986000830184612a74565b92915050565b612aa781612a62565b8114612ab257600080fd5b50565b600081359050612ac481612a9e565b92915050565b60008060408385031215612ae157612ae061285f565b5b6000612aef85828601612ab5565b9250506020612b0085828601612a00565b9150509250929050565b600080fd5b600080fd5b600080fd5b60008083601f840112612b2f57612b2e612b0a565b5b8235905067ffffffffffffffff811115612b4c57612b4b612b0f565b5b602083019150836001820283011115612b6857612b67612b14565b5b9250929050565b60008060208385031215612b8657612b8561285f565b5b600083013567ffffffffffffffff811115612ba457612ba3612864565b5b612bb085828601612b19565b92509250509250929050565b600080600060608486031215612bd557612bd461285f565b5b6000612be386828701612ab5565b9350506020612bf486828701612ab5565b9250506040612c0586828701612a00565b9150509250925092565b600080fd5b7f4e487b7100000000000000000000000000000000000000000000000000000000600052604160045260246000fd5b612c4c82612973565b810181811067ffffffffffffffff82111715612c6b57612c6a612c14565b5b80604052505050565b6000612c7e612855565b9050612c8a8282612c43565b919050565b600067ffffffffffffffff821115612caa57612ca9612c14565b5b612cb382612973565b9050602081019050919050565b82818337600083830152505050565b6000612ce2612cdd84612c8f565b612c74565b905082815260208101848484011115612cfe57612cfd612c0f565b5b612d09848285612cc0565b509392505050565b600082601f830112612d2657612d25612b0a565b5b8135612d36848260208601612ccf565b91505092915050565b600060208284031215612d5557612d5461285f565b5b600082013567ffffffffffffffff811115612d7357612d72612864565b5b612d7f84828501612d11565b91505092915050565b600060208284031215612d9e57612d9d61285f565b5b6000612dac84828501612ab5565b91505092915050565b612dbe816129df565b82525050565b6000602082019050612dd96000830184612db5565b92915050565b612de8816128ee565b8114612df357600080fd5b50565b600081359050612e0581612ddf565b92915050565b60008060408385031215612e2257612e2161285f565b5b6000612e3085828601612ab5565b9250506020612e4185828601612df6565b9150509250929050565b600067ffffffffffffffff821115612e6657612e65612c14565b5b612e6f82612973565b9050602081019050919050565b6000612e8f612e8a84612e4b565b612c74565b905082815260208101848484011115612eab57612eaa612c0f565b5b612eb6848285612cc0565b509392505050565b600082601f830112612ed357612ed2612b0a565b5b8135612ee3848260208601612e7c565b91505092915050565b60008060008060808587031215612f0657612f0561285f565b5b6000612f1487828801612ab5565b9450506020612f2587828801612ab5565b9350506040612f3687828801612a00565b925050606085013567ffffffffffffffff811115612f5757612f56612864565b5b612f6387828801612ebe565b91505092959194509250565b60008060008060408587031215612f8957612f8861285f565b5b600085013567ffffffffffffffff811115612fa757612fa6612864565b5b612fb387828801612b19565b9450945050602085013567ffffffffffffffff811115612fd657612fd5612864565b5b612fe287828801612b19565b925092505092959194509250565b600080604083850312156130075761300661285f565b5b600061301585828601612ab5565b925050602061302685828601612ab5565b9150509250929050565b7f4e487b7100000000000000000000000000000000000000000000000000000000600052602260045260246000fd5b6000600282049050600182168061307757607f821691505b6020821081141561308b5761308a613030565b5b50919050565b7f4552433732313a20617070726f76656420717565727920666f72206e6f6e657860008201527f697374656e7420746f6b656e0000000000000000000000000000000000000000602082015250565b60006130ed602c8361292f565b91506130f882613091565b604082019050919050565b6000602082019050818103600083015261311c816130e0565b9050919050565b7f4552433732313a20617070726f76616c20746f2063757272656e74206f776e6560008201527f7200000000000000000000000000000000000000000000000000000000000000602082015250565b600061317f60218361292f565b915061318a82613123565b604082019050919050565b600060208201905081810360008301526131ae81613172565b9050919050565b7f4552433732313a20617070726f76652063616c6c6572206973206e6f74206f7760008201527f6e6572206e6f7220617070726f76656420666f7220616c6c0000000000000000602082015250565b600061321160388361292f565b915061321c826131b5565b604082019050919050565b6000602082019050818103600083015261324081613204565b9050919050565b600081905092915050565b600061325e8385613247565b935061326b838584612cc0565b82840190509392505050565b6000613284828486613252565b91508190509392505050565b7f4552433732313a207472616e736665722063616c6c6572206973206e6f74206f60008201527f776e6572206e6f7220617070726f766564000000000000000000000000000000602082015250565b60006132ec60318361292f565b91506132f782613290565b604082019050919050565b6000602082019050818103600083015261331b816132df565b9050919050565b7f4552433732313a206f776e657220717565727920666f72206e6f6e657869737460008201527f656e7420746f6b656e0000000000000000000000000000000000000000000000602082015250565b600061337e60298361292f565b915061338982613322565b604082019050919050565b600060208201905081810360008301526133ad81613371565b9050919050565b7f4552433732313a2062616c616e636520717565727920666f7220746865207a6560008201527f726f206164647265737300000000000000000000000000000000000000000000602082015250565b6000613410602a8361292f565b915061341b826133b4565b604082019050919050565b6000602082019050818103600083015261343f81613403565b9050919050565b7f45524337323155524953746f726167653a2055524920717565727920666f722060008201527f6e6f6e6578697374656e7420746f6b656e000000000000000000000000000000602082015250565b60006134a260318361292f565b91506134ad82613446565b604082019050919050565b600060208201905081810360008301526134d181613495565b9050919050565b60006134e382612924565b6134ed8185613247565b93506134fd818560208601612940565b80840191505092915050565b600061351582856134d8565b915061352182846134d8565b91508190509392505050565b7f4e6f7420656e6f756768204d6174696320706169640000000000000000000000600082015250565b600061356360158361292f565b915061356e8261352d565b602082019050919050565b6000602082019050818103600083015261359281613556565b9050919050565b7f2e00000000000000000000000000000000000000000000000000000000000000600082015250565b60006135cf600183613247565b91506135da82613599565b600182019050919050565b60008190508160005260206000209050919050565b600081546136078161305f565b6136118186613247565b9450600182166000811461362c576001811461363d57613670565b60ff19831686528186019350613670565b613646856135e5565b60005b8381101561366857815481890152600182019150602081019050613649565b838801955050505b50505092915050565b6000613686828587613252565b9150613691826135c2565b915061369d82846135fa565b9150819050949350505050565b60006136b682866135fa565b91506136c282856134d8565b91506136ce82846135fa565b9150819050949350505050565b7f7b226e616d65223a202200000000000000000000000000000000000000000000600082015250565b6000613711600a83613247565b915061371c826136db565b600a82019050919050565b7f222c20226465736372697074696f6e223a20224120646f6d61696e206f6e207460008201527f68652032387468206e616d652073657276696365222c2022696d616765223a2060208201527f22646174613a696d6167652f7376672b786d6c3b6261736536342c0000000000604082015250565b60006137a9605b83613247565b91506137b482613727565b605b82019050919050565b7f222c226c656e677468223a220000000000000000000000000000000000000000600082015250565b60006137f5600c83613247565b9150613800826137bf565b600c82019050919050565b7f227d000000000000000000000000000000000000000000000000000000000000600082015250565b6000613841600283613247565b915061384c8261380b565b600282019050919050565b600061386282613704565b915061386e82866134d8565b91506138798261379c565b915061388582856134d8565b9150613890826137e8565b915061389c82846134d8565b91506138a782613834565b9150819050949350505050565b7f646174613a6170706c69636174696f6e2f6a736f6e3b6261736536342c000000600082015250565b60006138ea601d83613247565b91506138f5826138b4565b601d82019050919050565b600061390b826138dd565b915061391782846134d8565b915081905092915050565b6000604082019050818103600083015261393c8185612984565b905081810360208301526139508184612984565b90509392505050565b7f4552433732313a206f70657261746f7220717565727920666f72206e6f6e657860008201527f697374656e7420746f6b656e0000000000000000000000000000000000000000602082015250565b60006139b5602c8361292f565b91506139c082613959565b604082019050919050565b600060208201905081810360008301526139e4816139a8565b9050919050565b7f4552433732313a207472616e736665722066726f6d20696e636f72726563742060008201527f6f776e6572000000000000000000000000000000000000000000000000000000602082015250565b6000613a4760258361292f565b9150613a52826139eb565b604082019050919050565b60006020820190508181036000830152613a7681613a3a565b9050919050565b7f4552433732313a207472616e7366657220746f20746865207a65726f2061646460008201527f7265737300000000000000000000000000000000000000000000000000000000602082015250565b6000613ad960248361292f565b9150613ae482613a7d565b604082019050919050565b60006020820190508181036000830152613b0881613acc565b9050919050565b7f4e487b7100000000000000000000000000000000000000000000000000000000600052601160045260246000fd5b6000613b49826129df565b9150613b54836129df565b925082821015613b6757613b66613b0f565b5b828203905092915050565b6000613b7d826129df565b9150613b88836129df565b9250827fffffffffffffffffffffffffffffffffffffffffffffffffffffffffffffffff03821115613bbd57613bbc613b0f565b5b828201905092915050565b7f4552433732313a20617070726f766520746f2063616c6c657200000000000000600082015250565b6000613bfe60198361292f565b9150613c0982613bc8565b602082019050919050565b60006020820190508181036000830152613c2d81613bf1565b9050919050565b7f4552433732313a207472616e7366657220746f206e6f6e20455243373231526560008201527f63656976657220696d706c656d656e7465720000000000000000000000000000602082015250565b6000613c9060328361292f565b9150613c9b82613c34565b604082019050919050565b60006020820190508181036000830152613cbf81613c83565b9050919050565b7f4552433732314d657461646174613a2055524920717565727920666f72206e6f60008201527f6e6578697374656e7420746f6b656e0000000000000000000000000000000000602082015250565b6000613d22602f8361292f565b9150613d2d82613cc6565b604082019050919050565b60006020820190508181036000830152613d5181613d15565b9050919050565b7f4e487b7100000000000000000000000000000000000000000000000000000000600052603260045260246000fd5b6000613d92826129df565b91507fffffffffffffffffffffffffffffffffffffffffffffffffffffffffffffffff821415613dc557613dc4613b0f565b5b600182019050919050565b7f4e487b7100000000000000000000000000000000000000000000000000000000600052601260045260246000fd5b6000613e0a826129df565b9150613e15836129df565b925082613e2557613e24613dd0565b5b828204905092915050565b6000613e3b826129df565b9150613e46836129df565b925082613e5657613e55613dd0565b5b828206905092915050565b60006060820190508181036000830152613e7b8186612984565b90508181036020830152613e8f8185612984565b9050613e9e6040830184612db5565b949350505050565b6000613eb1826129df565b9150613ebc836129df565b9250817fffffffffffffffffffffffffffffffffffffffffffffffffffffffffffffffff0483118215151615613ef557613ef4613b0f565b5b828202905092915050565b7f45524337323155524953746f726167653a2055524920736574206f66206e6f6e60008201527f6578697374656e7420746f6b656e000000000000000000000000000000000000602082015250565b6000613f5c602e8361292f565b9150613f6782613f00565b604082019050919050565b60006020820190508181036000830152613f8b81613f4f565b9050919050565b600081519050919050565b600082825260208201905092915050565b6000613fb982613f92565b613fc38185613f9d565b9350613fd3818560208601612940565b613fdc81612973565b840191505092915050565b6000608082019050613ffc6000830187612a74565b6140096020830186612a74565b6140166040830185612db5565b81810360608301526140288184613fae565b905095945050505050565b60008151905061404281612895565b92915050565b60006020828403121561405e5761405d61285f565b5b600061406c84828501614033565b91505092915050565b7f4552433732313a206d696e7420746f20746865207a65726f2061646472657373600082015250565b60006140ab60208361292f565b91506140b682614075565b602082019050919050565b600060208201905081810360008301526140da8161409e565b9050919050565b7f4552433732313a20746f6b656e20616c7265616479206d696e74656400000000600082015250565b6000614117601c8361292f565b9150614122826140e1565b602082019050919050565b600060208201905081810360008301526141468161410a565b905091905056fe0a2d2d2d2d2d2d2d2d2d2d2d2d2d2d2d2d2d2d2d2d2d2d2d2d2d2d2d2d2d2d2d2d2d2d2d2d2d2d2d2d2d2d2d2d2d2d2d2d2d2d2d2d2d2d2d2d2d2d2d2d2d2d2d2d2d2d2d2d2d2d2d2d2d2d2d2d2d2d2d2d2d2d2d2d2d2d2d2d2d2d2d2d2d2d2d2d2d2d2d2d2d2d2d2d2d2d2d2d2d2d2d2d0a4142434445464748494a4b4c4d4e4f505152535455565758595a6162636465666768696a6b6c6d6e6f707172737475767778797a303132333435363738392b2f5265676973746572696e67202573206f6e2074686520636f6e7472616374207769746820746f6b656e4944202564a264697066735822122087c405ae65274d8e9f8c0bf0afe4d9f1e15fb2328c41274e0ed69c7a4deb35ce64736f6c634300080a00333c73766720786d6c6e733d22687474703a2f2f7777772e77332e6f72672f323030302f737667222077696474683d2232373022206865696768743d22323730222066696c6c3d226e6f6e65223e3c706174682066696c6c3d2275726c282342292220643d224d302030683237307632373048307a222f3e3c646566733e3c66696c7465722069643d22412220636f6c6f722d696e746572706f6c6174696f6e2d66696c746572733d2273524742222066696c746572556e6974733d227573657253706163654f6e55736522206865696768743d22323730222077696474683d22323730223e3c666544726f70536861646f772064783d2230222064793d22312220737464446576696174696f6e3d22322220666c6f6f642d6f7061636974793d222e323235222077696474683d223230302522206865696768743d2232303025222f3e3c2f66696c7465723e3c2f646566733e3c7061746820643d224d37322e3836332034322e393439632d2e3636382d2e3338372d312e3432362d2e35392d322e3139372d2e3539732d312e3532392e3230342d322e3139372e35396c2d31302e30383120362e3033322d362e383520332e3933342d31302e30383120362e303332632d2e3636382e3338372d312e3432362e35392d322e3139372e3539732d312e3532392d2e3230342d322e3139372d2e35396c2d382e3031332d342e37323161342e353220342e35322030203020312d312e3538392d312e363136632d2e3338342d2e3636352d2e3539342d312e3431382d2e3630382d322e313837762d392e3331632d2e3031332d2e3737352e3138352d312e3533382e3537322d322e32303861342e323520342e323520302030203120312e3632352d312e3539356c372e3838342d342e3539632e3636382d2e33383720312e3432362d2e353920322e3139372d2e353973312e3532392e32303420322e3139372e35396c372e38383420342e353961342e353220342e353220302030203120312e35383920312e363136632e3338342e3636352e35393420312e3431382e36303820322e31383776362e3033326c362e38352d342e303635762d362e303332632e3031332d2e3737352d2e3138352d312e3533382d2e3537322d322e32303861342e323520342e32352030203020302d312e3632352d312e3539354c34312e3435362032342e3539632d2e3636382d2e3338372d312e3432362d2e35392d322e3139372d2e3539732d312e3532392e3230342d322e3139372e35396c2d31342e38363420382e36353561342e323520342e32352030203020302d312e36323520312e353935632d2e3338372e36372d2e35383520312e3433342d2e35373220322e3230387631372e343431632d2e3031332e3737352e31383520312e3533382e35373220322e32303861342e323520342e323520302030203020312e36323520312e3539356c31342e38363420382e363535632e3636382e33383720312e3432362e353920322e3139372e353973312e3532392d2e32303420322e3139372d2e35396c31302e3038312d352e39303120362e38352d342e3036352031302e3038312d352e393031632e3636382d2e33383720312e3432362d2e353920322e3139372d2e353973312e3532392e32303420322e3139372e35396c372e38383420342e353961342e353220342e353220302030203120312e35383920312e363136632e3338342e3636352e35393420312e3431382e36303820322e31383776392e333131632e3031332e3737352d2e31383520312e3533382d2e35373220322e32303861342e323520342e32352030203020312d312e36323520312e3539356c2d372e38383420342e373231632d2e3636382e3338372d312e3432362e35392d322e3139372e3539732d312e3532392d2e3230342d322e3139372d2e35396c2d372e3838342d342e353961342e353220342e35322030203020312d312e3538392d312e363136632d2e3338352d2e3636352d2e3539342d312e3431382d2e3630382d322e313837762d362e3033326c2d362e383520342e30363576362e303332632d2e3031332e3737352e31383520312e3533382e35373220322e32303861342e323520342e323520302030203020312e36323520312e3539356c31342e38363420382e363535632e3636382e33383720312e3432362e353920322e3139372e353973312e3532392d2e32303420322e3139372d2e35396c31342e3836342d382e363535632e3635372d2e33393420312e3230342d2e393520312e3538392d312e363136732e3539342d312e3431382e3630392d322e3138375635352e353338632e3031332d2e3737352d2e3138352d312e3533382d2e3537322d322e32303861342e323520342e32352030203020302d312e3632352d312e3539356c2d31342e3939332d382e3738367a222066696c6c3d2223666666222f3e3c646566733e3c6c696e6561724772616469656e742069643d2242222078313d2230222079313d2230222078323d22323730222079323d2232373022206772616469656e74556e6974733d227573657253706163654f6e557365223e3c73746f702073746f702d636f6c6f723d2223636235656565222f3e3c73746f70206f66667365743d2231222073746f702d636f6c6f723d2223306364376534222073746f702d6f7061636974793d222e3939222f3e3c2f6c696e6561724772616469656e743e3c2f646566733e3c7465787420783d2233322e352220793d223233312220666f6e742d73697a653d223237222066696c6c3d2223666666222066696c7465723d2275726c282341292220666f6e742d66616d696c793d22506c7573204a616b617274612053616e732c44656a6156752053616e732c4e6f746f20436f6c6f7220456d6f6a692c4170706c6520436f6c6f7220456d6f6a692c73616e732d73657269662220666f6e742d7765696768743d22626f6c64223e",
  "linkReferences": {},
  "deployedLinkReferences": {}
}